{
  "contractName": "Payroll",
  "abi": [
    {
      "anonymous": false,
      "inputs": [
        {
          "indexed": false,
          "internalType": "address payable",
          "name": "employee",
          "type": "address"
        }
      ],
      "name": "GetPaid",
      "type": "event"
    },
    {
      "anonymous": false,
      "inputs": [
        {
          "indexed": false,
          "internalType": "address payable",
          "name": "employee",
          "type": "address"
        }
      ],
      "name": "NewEmployee",
      "type": "event"
    },
    {
      "anonymous": false,
      "inputs": [
        {
          "indexed": false,
          "internalType": "uint256",
          "name": "balance",
          "type": "uint256"
        }
      ],
      "name": "NewFund",
      "type": "event"
    },
    {
      "anonymous": false,
      "inputs": [
        {
          "indexed": true,
          "internalType": "address",
          "name": "previousOwner",
          "type": "address"
        },
        {
          "indexed": true,
          "internalType": "address",
          "name": "newOwner",
          "type": "address"
        }
      ],
      "name": "OwnershipTransferred",
      "type": "event"
    },
    {
      "anonymous": false,
      "inputs": [
        {
          "indexed": false,
          "internalType": "address payable",
          "name": "employee",
          "type": "address"
        }
      ],
      "name": "RemoveEmployee",
      "type": "event"
    },
    {
      "anonymous": false,
      "inputs": [
        {
          "indexed": false,
          "internalType": "address payable",
          "name": "employee",
          "type": "address"
        }
      ],
      "name": "UpdateEmployee",
      "type": "event"
    },
    {
      "inputs": [
        {
          "internalType": "address",
          "name": "",
          "type": "address"
        }
      ],
      "name": "employees",
      "outputs": [
        {
          "internalType": "address payable",
          "name": "id",
          "type": "address"
        },
        {
          "internalType": "uint256",
          "name": "salary",
          "type": "uint256"
        },
        {
          "internalType": "uint256",
          "name": "lastPayDay",
          "type": "uint256"
        }
      ],
      "stateMutability": "view",
      "type": "function",
      "constant": true
    },
    {
      "inputs": [],
      "name": "owner",
      "outputs": [
        {
          "internalType": "address",
          "name": "",
          "type": "address"
        }
      ],
      "stateMutability": "view",
      "type": "function",
      "constant": true
    },
    {
      "inputs": [],
      "name": "renounceOwnership",
      "outputs": [],
      "stateMutability": "nonpayable",
      "type": "function"
    },
    {
      "inputs": [],
      "name": "test_balance",
      "outputs": [
        {
          "internalType": "uint256",
          "name": "",
          "type": "uint256"
        }
      ],
      "stateMutability": "view",
      "type": "function",
      "constant": true
    },
    {
      "inputs": [],
      "name": "totalEmployee",
      "outputs": [
        {
          "internalType": "uint256",
          "name": "",
          "type": "uint256"
        }
      ],
      "stateMutability": "view",
      "type": "function",
      "constant": true
    },
    {
      "inputs": [
        {
          "internalType": "address",
          "name": "newOwner",
          "type": "address"
        }
      ],
      "name": "transferOwnership",
      "outputs": [],
      "stateMutability": "nonpayable",
      "type": "function"
    },
    {
      "stateMutability": "payable",
      "type": "receive",
      "payable": true
    },
    {
      "inputs": [
        {
          "components": [
            {
              "internalType": "address payable",
              "name": "id",
              "type": "address"
            },
            {
              "internalType": "uint256",
              "name": "salary",
              "type": "uint256"
            },
            {
              "internalType": "uint256",
              "name": "lastPayDay",
              "type": "uint256"
            }
          ],
          "internalType": "struct Payroll.Employee",
          "name": "employee",
          "type": "tuple"
        }
      ],
      "name": "_partialPaid",
      "outputs": [],
      "stateMutability": "nonpayable",
      "type": "function"
    },
    {
      "inputs": [
        {
          "internalType": "uint256",
          "name": "index",
          "type": "uint256"
        }
      ],
      "name": "checkEmployee",
      "outputs": [
        {
          "internalType": "address payable",
          "name": "employeeId",
          "type": "address"
        },
        {
          "internalType": "uint256",
          "name": "salary",
          "type": "uint256"
        },
        {
          "internalType": "uint256",
          "name": "lastPayday",
          "type": "uint256"
        }
      ],
      "stateMutability": "view",
      "type": "function",
      "constant": true
    },
    {
      "inputs": [
        {
          "internalType": "address payable",
          "name": "employeeId",
          "type": "address"
        },
        {
          "internalType": "uint256",
          "name": "salary",
          "type": "uint256"
        }
      ],
      "name": "addEmployee",
      "outputs": [],
      "stateMutability": "nonpayable",
      "type": "function"
    },
    {
      "inputs": [
        {
          "internalType": "address payable",
          "name": "employeeId",
          "type": "address"
        }
      ],
      "name": "removeEmployee",
      "outputs": [],
      "stateMutability": "nonpayable",
      "type": "function"
    },
    {
      "inputs": [
        {
          "internalType": "address payable",
          "name": "employeeId",
          "type": "address"
        },
        {
          "internalType": "uint256",
          "name": "salary",
          "type": "uint256"
        }
      ],
      "name": "updateEmployee",
      "outputs": [],
      "stateMutability": "nonpayable",
      "type": "function"
    },
    {
      "inputs": [],
      "name": "addFund",
      "outputs": [
        {
          "internalType": "uint256",
          "name": "",
          "type": "uint256"
        }
      ],
      "stateMutability": "payable",
      "type": "function",
      "payable": true
    },
    {
      "inputs": [],
      "name": "calculateRunway",
      "outputs": [
        {
          "internalType": "uint256",
          "name": "",
          "type": "uint256"
        }
      ],
      "stateMutability": "view",
      "type": "function",
      "constant": true
    },
    {
      "inputs": [],
      "name": "hasEnoughFund",
      "outputs": [
        {
          "internalType": "bool",
          "name": "",
          "type": "bool"
        }
      ],
      "stateMutability": "view",
      "type": "function",
      "constant": true
    },
    {
      "inputs": [],
      "name": "getPaid",
      "outputs": [],
      "stateMutability": "nonpayable",
      "type": "function"
    },
    {
      "inputs": [],
      "name": "checkInfo",
      "outputs": [
        {
          "internalType": "uint256",
          "name": "balance",
          "type": "uint256"
        },
        {
          "internalType": "uint256",
          "name": "runway",
          "type": "uint256"
        },
        {
          "internalType": "uint256",
          "name": "employeeCount",
          "type": "uint256"
        }
      ],
      "stateMutability": "view",
      "type": "function",
      "constant": true
    },
    {
      "inputs": [],
      "name": "getBalance",
      "outputs": [
        {
          "internalType": "uint256",
          "name": "",
          "type": "uint256"
        }
      ],
      "stateMutability": "view",
      "type": "function",
      "constant": true
    },
    {
      "inputs": [],
      "name": "getNumberOfEmployee",
      "outputs": [
        {
          "internalType": "uint256",
          "name": "",
          "type": "uint256"
        }
      ],
      "stateMutability": "view",
      "type": "function",
      "constant": true
    }
  ],
  "bytecode": "0x6080604052600060035534801561001557600080fd5b5061003261002761003760201b60201c565b61003f60201b60201c565b610103565b600033905090565b60008060009054906101000a900473ffffffffffffffffffffffffffffffffffffffff169050816000806101000a81548173ffffffffffffffffffffffffffffffffffffffff021916908373ffffffffffffffffffffffffffffffffffffffff1602179055508173ffffffffffffffffffffffffffffffffffffffff168173ffffffffffffffffffffffffffffffffffffffff167f8be0079c531659141344cd1fd0a4f28419497f9722a3daafe3b4186f6b6457e060405160405180910390a35050565b611755806101126000396000f3fe60806040526004361061010d5760003560e01c80638da5cb5b11610095578063cf41d6f811610064578063cf41d6f814610339578063d067894714610350578063d108177a1461038f578063e7fd9a13146103b8578063f2fde38b146103e157610114565b80638da5cb5b1461028857806396b02696146102b3578063a2f09dfa146102f2578063c6685e0e1461031057610114565b80634ec19512116100dc5780634ec19512146101c5578063577699b9146101f05780635e91d8ec1461021b578063715018a61461024457806385a962581461025b57610114565b806312065fe01461011957806313b07f341461014457806323fed09e1461016f57806339412e781461019a57610114565b3661011457005b600080fd5b34801561012557600080fd5b5061012e61040a565b60405161013b91906110d5565b60405180910390f35b34801561015057600080fd5b50610159610412565b60405161016691906110d5565b60405180910390f35b34801561017b57600080fd5b50610184610418565b604051610191919061110b565b60405180910390f35b3480156101a657600080fd5b506101af610429565b6040516101bc91906110d5565b60405180910390f35b3480156101d157600080fd5b506101da61042f565b6040516101e791906110d5565b60405180910390f35b3480156101fc57600080fd5b5061020561044b565b60405161021291906110d5565b60405180910390f35b34801561022757600080fd5b50610242600480360381019061023d91906111bf565b610455565b005b34801561025057600080fd5b50610259610640565b005b34801561026757600080fd5b50610270610654565b60405161027f939291906111ff565b60405180910390f35b34801561029457600080fd5b5061029d61067c565b6040516102aa9190611257565b60405180910390f35b3480156102bf57600080fd5b506102da60048036038101906102d59190611272565b6106a5565b6040516102e9939291906112ae565b60405180910390f35b6102fa610744565b60405161030791906110d5565b60405180910390f35b34801561031c57600080fd5b50610337600480360381019061033291906113da565b610783565b005b34801561034557600080fd5b5061034e610816565b005b34801561035c57600080fd5b5061037760048036038101906103729190611433565b6109fb565b604051610386939291906112ae565b60405180910390f35b34801561039b57600080fd5b506103b660048036038101906103b19190611460565b610a45565b005b3480156103c457600080fd5b506103df60048036038101906103da91906111bf565b610c98565b005b3480156103ed57600080fd5b5061040860048036038101906104039190611433565b610e97565b005b600047905090565b60015481565b60008061042361042f565b11905090565b60035481565b600061044660025447610f1a90919063ffffffff16565b905090565b6000600354905090565b816000600560008373ffffffffffffffffffffffffffffffffffffffff1673ffffffffffffffffffffffffffffffffffffffff1681526020019081526020016000209050600073ffffffffffffffffffffffffffffffffffffffff168160000160009054906101000a900473ffffffffffffffffffffffffffffffffffffffff1673ffffffffffffffffffffffffffffffffffffffff16036104f657600080fd5b6000600560008673ffffffffffffffffffffffffffffffffffffffff1673ffffffffffffffffffffffffffffffffffffffff16815260200190815260200160002090506105b7816040518060600160405290816000820160009054906101000a900473ffffffffffffffffffffffffffffffffffffffff1673ffffffffffffffffffffffffffffffffffffffff1673ffffffffffffffffffffffffffffffffffffffff16815260200160018201548152602001600282015481525050610783565b6105d2670de0b6b3a764000085610f3090919063ffffffff16565b81600101819055504281600201819055506105fc8160010154600254610f4690919063ffffffff16565b6002819055507f488bacda22fcd72c26e796890d62491cef03e8de61cad515b1826a683f2e760f85604051610631919061148d565b60405180910390a15050505050565b610648610f5c565b6106526000610fda565b565b60008060004792506003549050600060025411156106775761067461042f565b91505b909192565b60008060009054906101000a900473ffffffffffffffffffffffffffffffffffffffff16905090565b6000806000600484815481106106be576106bd6114a8565b5b9060005260206000200160009054906101000a900473ffffffffffffffffffffffffffffffffffffffff1692506000600560008573ffffffffffffffffffffffffffffffffffffffff1673ffffffffffffffffffffffffffffffffffffffff16815260200190815260200160002090508060010154925080600201549150509193909250565b60007fbe1e4b1ad5d83f75925e2f00ab046fbab2ee90d0dbdf7f2049d037a48ada09f34760405161077591906110d5565b60405180910390a147905090565b60006107c5600a6107b76107a485604001514261109e90919063ffffffff16565b8560200151610f3090919063ffffffff16565b610f1a90919063ffffffff16565b9050816000015173ffffffffffffffffffffffffffffffffffffffff166108fc829081150290604051600060405180830381858888f19350505050158015610811573d6000803e3d6000fd5b505050565b336000600560008373ffffffffffffffffffffffffffffffffffffffff1673ffffffffffffffffffffffffffffffffffffffff1681526020019081526020016000209050600073ffffffffffffffffffffffffffffffffffffffff168160000160009054906101000a900473ffffffffffffffffffffffffffffffffffffffff1673ffffffffffffffffffffffffffffffffffffffff16036108b757600080fd5b6000600560003373ffffffffffffffffffffffffffffffffffffffff1673ffffffffffffffffffffffffffffffffffffffff16815260200190815260200160002090506000610914600a8360020154610f4690919063ffffffff16565b905042811061092257600080fd5b8082600201819055508160000160009054906101000a900473ffffffffffffffffffffffffffffffffffffffff1673ffffffffffffffffffffffffffffffffffffffff166108fc83600101549081150290604051600060405180830381858888f19350505050158015610999573d6000803e3d6000fd5b507f7decdec0fa70b21ecd45a15b04d5f5313c8fc915a1b3c034aa2bffa4fc8fc5918260000160009054906101000a900473ffffffffffffffffffffffffffffffffffffffff166040516109ed919061148d565b60405180910390a150505050565b60056020528060005260406000206000915090508060000160009054906101000a900473ffffffffffffffffffffffffffffffffffffffff16908060010154908060020154905083565b806000600560008373ffffffffffffffffffffffffffffffffffffffff1673ffffffffffffffffffffffffffffffffffffffff1681526020019081526020016000209050600073ffffffffffffffffffffffffffffffffffffffff168160000160009054906101000a900473ffffffffffffffffffffffffffffffffffffffff1673ffffffffffffffffffffffffffffffffffffffff1603610ae657600080fd5b6000600560008573ffffffffffffffffffffffffffffffffffffffff1673ffffffffffffffffffffffffffffffffffffffff1681526020019081526020016000209050610ba7816040518060600160405290816000820160009054906101000a900473ffffffffffffffffffffffffffffffffffffffff1673ffffffffffffffffffffffffffffffffffffffff1673ffffffffffffffffffffffffffffffffffffffff16815260200160018201548152602001600282015481525050610783565b610bc0816001015460025461109e90919063ffffffff16565b600281905550600560008573ffffffffffffffffffffffffffffffffffffffff1673ffffffffffffffffffffffffffffffffffffffff168152602001908152602001600020600080820160006101000a81549073ffffffffffffffffffffffffffffffffffffffff0219169055600182016000905560028201600090555050610c55600160035461109e90919063ffffffff16565b6003819055507f52d6abdca596d1c4a93f3df131dcf3a55ecaaa92ab3a0be58a15b98aab12d49b84604051610c8a919061148d565b60405180910390a150505050565b60405180606001604052808373ffffffffffffffffffffffffffffffffffffffff168152602001610cda670de0b6b3a764000084610f3090919063ffffffff16565b815260200142815250600560008473ffffffffffffffffffffffffffffffffffffffff1673ffffffffffffffffffffffffffffffffffffffff16815260200190815260200160002060008201518160000160006101000a81548173ffffffffffffffffffffffffffffffffffffffff021916908373ffffffffffffffffffffffffffffffffffffffff1602179055506020820151816001015560408201518160020155905050610dd7600560008473ffffffffffffffffffffffffffffffffffffffff1673ffffffffffffffffffffffffffffffffffffffff16815260200190815260200160002060010154600254610f4690919063ffffffff16565b600281905550610df36001600354610f4690919063ffffffff16565b6003819055506004829080600181540180825580915050600190039060005260206000200160009091909190916101000a81548173ffffffffffffffffffffffffffffffffffffffff021916908373ffffffffffffffffffffffffffffffffffffffff1602179055507f37e9308d0d750d43a2e5ef16b6d47b60b2741e12be41128ca3bec877db4f9dcb82604051610e8b919061148d565b60405180910390a15050565b610e9f610f5c565b600073ffffffffffffffffffffffffffffffffffffffff168173ffffffffffffffffffffffffffffffffffffffff1603610f0e576040517f08c379a0000000000000000000000000000000000000000000000000000000008152600401610f059061155a565b60405180910390fd5b610f1781610fda565b50565b60008183610f2891906115d8565b905092915050565b60008183610f3e9190611609565b905092915050565b60008183610f54919061164b565b905092915050565b610f646110b4565b73ffffffffffffffffffffffffffffffffffffffff16610f8261067c565b73ffffffffffffffffffffffffffffffffffffffff1614610fd8576040517f08c379a0000000000000000000000000000000000000000000000000000000008152600401610fcf906116cb565b60405180910390fd5b565b60008060009054906101000a900473ffffffffffffffffffffffffffffffffffffffff169050816000806101000a81548173ffffffffffffffffffffffffffffffffffffffff021916908373ffffffffffffffffffffffffffffffffffffffff1602179055508173ffffffffffffffffffffffffffffffffffffffff168173ffffffffffffffffffffffffffffffffffffffff167f8be0079c531659141344cd1fd0a4f28419497f9722a3daafe3b4186f6b6457e060405160405180910390a35050565b600081836110ac91906116eb565b905092915050565b600033905090565b6000819050919050565b6110cf816110bc565b82525050565b60006020820190506110ea60008301846110c6565b92915050565b60008115159050919050565b611105816110f0565b82525050565b600060208201905061112060008301846110fc565b92915050565b6000604051905090565b600080fd5b600073ffffffffffffffffffffffffffffffffffffffff82169050919050565b600061116082611135565b9050919050565b61117081611155565b811461117b57600080fd5b50565b60008135905061118d81611167565b92915050565b61119c816110bc565b81146111a757600080fd5b50565b6000813590506111b981611193565b92915050565b600080604083850312156111d6576111d5611130565b5b60006111e48582860161117e565b92505060206111f5858286016111aa565b9150509250929050565b600060608201905061121460008301866110c6565b61122160208301856110c6565b61122e60408301846110c6565b949350505050565b600061124182611135565b9050919050565b61125181611236565b82525050565b600060208201905061126c6000830184611248565b92915050565b60006020828403121561128857611287611130565b5b6000611296848285016111aa565b91505092915050565b6112a881611155565b82525050565b60006060820190506112c3600083018661129f565b6112d060208301856110c6565b6112dd60408301846110c6565b949350505050565b600080fd5b6000601f19601f8301169050919050565b7f4e487b7100000000000000000000000000000000000000000000000000000000600052604160045260246000fd5b611333826112ea565b810181811067ffffffffffffffff82111715611352576113516112fb565b5b80604052505050565b6000611365611126565b9050611371828261132a565b919050565b60006060828403121561138c5761138b6112e5565b5b611396606061135b565b905060006113a68482850161117e565b60008301525060206113ba848285016111aa565b60208301525060406113ce848285016111aa565b60408301525092915050565b6000606082840312156113f0576113ef611130565b5b60006113fe84828501611376565b91505092915050565b61141081611236565b811461141b57600080fd5b50565b60008135905061142d81611407565b92915050565b60006020828403121561144957611448611130565b5b60006114578482850161141e565b91505092915050565b60006020828403121561147657611475611130565b5b60006114848482850161117e565b91505092915050565b60006020820190506114a2600083018461129f565b92915050565b7f4e487b7100000000000000000000000000000000000000000000000000000000600052603260045260246000fd5b600082825260208201905092915050565b7f4f776e61626c653a206e6577206f776e657220697320746865207a65726f206160008201527f6464726573730000000000000000000000000000000000000000000000000000602082015250565b60006115446026836114d7565b915061154f826114e8565b604082019050919050565b6000602082019050818103600083015261157381611537565b9050919050565b7f4e487b7100000000000000000000000000000000000000000000000000000000600052601260045260246000fd5b7f4e487b7100000000000000000000000000000000000000000000000000000000600052601160045260246000fd5b60006115e3826110bc565b91506115ee836110bc565b9250826115fe576115fd61157a565b5b828204905092915050565b6000611614826110bc565b915061161f836110bc565b925082820261162d816110bc565b91508282048414831517611644576116436115a9565b5b5092915050565b6000611656826110bc565b9150611661836110bc565b9250828201905080821115611679576116786115a9565b5b92915050565b7f4f776e61626c653a2063616c6c6572206973206e6f7420746865206f776e6572600082015250565b60006116b56020836114d7565b91506116c08261167f565b602082019050919050565b600060208201905081810360008301526116e4816116a8565b9050919050565b60006116f6826110bc565b9150611701836110bc565b9250828203905081811115611719576117186115a9565b5b9291505056fea2646970667358221220ce56adf9c873114603473d7dcd008a9bcbaecf7aabcca6b474da9f2ae144b04664736f6c63430008110033",
  "immutableReferences": {},
  "source": "// SPDX-License-Identifier: GPL-3.0\n\npragma solidity >=0.7.0 <0.9.0;\n// import \"https://github.com/OpenZeppelin/openzeppelin-contracts/blob/master/contracts/access/Ownable.sol\";\n// import \"https://github.com/OpenZeppelin/openzeppelin-contracts/blob/master/contracts/utils/math/SafeMath.sol\";\nimport \"@openzeppelin/contracts/access/Ownable.sol\";\nimport \"@openzeppelin/contracts/utils/math/SafeMath.sol\";\n\ncontract Payroll is Ownable{\n    // attaching SafeMath library to uint\n    // https://ethereum.stackexchange.com/questions/25829/meaning-of-using-safemath-for-uint256\n    using SafeMath for uint;\n    uint public test_balance;\n    // constructor() public {\n    //     test_balance = address(this).balance;\n    // }\n    // defining the struct for employee data\n    struct Employee {\n        address payable id;\n        uint salary;\n        uint lastPayDay;\n    }\n\n    uint constant payDuration = 10 seconds;\n\n    uint totalSalary;\n    uint public totalEmployee = 0;\n    address payable[] employeeList;\n    mapping(address => Employee) public employees;\n\n    event NewEmployee(\n        address payable employee\n    );\n    event UpdateEmployee(\n        address payable employee\n    );\n    event RemoveEmployee(\n        address payable employee\n    );\n    event NewFund(\n        uint balance\n    );\n    event GetPaid(\n        address payable employee\n    );\n\n    modifier employeeExit(address payable employeeId) {\n        Employee storage employee = employees[employeeId];\n        require(employee.id != payable(address(0x0)));\n        _;\n    }\n\n    function _partialPaid(Employee memory employee) public {\n        uint payment = employee.salary.mul(block.timestamp.sub(employee.lastPayDay)).div(payDuration);\n        employee.id.transfer(payment);\n    }\n\n    function checkEmployee(uint index) public view returns (address payable employeeId, uint salary, uint lastPayday) {\n        employeeId = employeeList[index];\n        Employee storage employee = employees[employeeId];\n        salary = employee.salary;\n        lastPayday = employee.lastPayDay;\n    }\n\n\n    function addEmployee(address payable employeeId, uint salary) public {\n        // Employee storage employee = employees[employeeId];\n        // require(employee.id == payable(address(0x0)));\n\n        employees[employeeId] = Employee(employeeId, salary.mul(1 ether), block.timestamp);\n        totalSalary = totalSalary.add(employees[employeeId].salary);\n        totalEmployee = totalEmployee.add(1);\n        employeeList.push(employeeId);\n        emit NewEmployee(employeeId);\n    }\n\n    function removeEmployee(address payable employeeId) public employeeExit(employeeId) {\n        Employee storage employee = employees[employeeId];\n        _partialPaid(employee);\n        totalSalary = totalSalary.sub(employee.salary);\n        delete employees[employeeId];\n        totalEmployee = totalEmployee.sub(1);\n        emit RemoveEmployee(employeeId);\n    }\n\n    function updateEmployee(address payable employeeId, uint salary) public employeeExit(employeeId){\n        Employee storage employee = employees[employeeId];\n        _partialPaid(employee);\n        employee.salary = salary.mul(1 ether);\n        employee.lastPayDay = block.timestamp;\n        totalSalary = totalSalary.add(employee.salary);\n        emit UpdateEmployee(employeeId);\n    }\n\n    function addFund() external payable returns (uint) {\n        emit NewFund(address(this).balance);\n        return address(this).balance; \n    }\n\n    function calculateRunway() public view returns (uint) {\n        return address(this).balance.div(totalSalary);\n    }\n\n    function hasEnoughFund() public view returns (bool) {\n        return calculateRunway() > 0;\n    }\n\n    function getPaid() public employeeExit(payable(msg.sender)) {\n        Employee storage employee = employees[payable(msg.sender)];\n\n        uint nextPayDay = employee.lastPayDay.add(payDuration);\n        require(nextPayDay < block.timestamp);\n\n        employee.lastPayDay = nextPayDay;\n        employee.id.transfer(employee.salary);\n        emit GetPaid(employee.id);\n    }\n\n    function checkInfo() public view returns (uint balance, uint runway, uint employeeCount){\n        balance = address(this).balance;\n        employeeCount = totalEmployee;\n        if (totalSalary > 0){\n            runway = calculateRunway();\n        }\n    }\n\n    function getBalance() public view returns (uint){\n        return address(this).balance;\n    }\n\n    function getNumberOfEmployee() public view returns (uint){\n        return totalEmployee;\n    }\n\n    receive() external payable {}\n\n}",
  "sourcePath": "/Users/abhishek/Projects/272_project/backend/contracts/Payroll.sol",
  "compiler": {
    "name": "solc",
    "version": "0.8.17+commit.8df45f5f.Emscripten.clang"
  },
  "schemaVersion": "3.4.10",
  "updatedAt": "2022-11-30T07:12:25.811Z",
  "networkType": "ethereum",
  "devdoc": {
    "kind": "dev",
    "methods": {
      "owner()": {
        "details": "Returns the address of the current owner."
      },
      "renounceOwnership()": {
        "details": "Leaves the contract without owner. It will not be possible to call `onlyOwner` functions anymore. Can only be called by the current owner. NOTE: Renouncing ownership will leave the contract without an owner, thereby removing any functionality that is only available to the owner."
      },
      "transferOwnership(address)": {
        "details": "Transfers ownership of the contract to a new account (`newOwner`). Can only be called by the current owner."
      }
    },
    "version": 1
  },
  "userdoc": {
    "kind": "user",
    "methods": {},
    "version": 1
  }
}