{
  "contractName": "Payroll",
  "abi": [
    {
      "anonymous": false,
      "inputs": [
        {
          "indexed": false,
          "internalType": "address payable",
          "name": "employee",
          "type": "address"
        }
      ],
      "name": "GetPaid",
      "type": "event"
    },
    {
      "anonymous": false,
      "inputs": [
        {
          "indexed": false,
          "internalType": "address payable",
          "name": "employee",
          "type": "address"
        }
      ],
      "name": "NewEmployee",
      "type": "event"
    },
    {
      "anonymous": false,
      "inputs": [
        {
          "indexed": false,
          "internalType": "uint256",
          "name": "balance",
          "type": "uint256"
        }
      ],
      "name": "NewFund",
      "type": "event"
    },
    {
      "anonymous": false,
      "inputs": [
        {
          "indexed": true,
          "internalType": "address",
          "name": "previousOwner",
          "type": "address"
        },
        {
          "indexed": true,
          "internalType": "address",
          "name": "newOwner",
          "type": "address"
        }
      ],
      "name": "OwnershipTransferred",
      "type": "event"
    },
    {
      "anonymous": false,
      "inputs": [
        {
          "indexed": false,
          "internalType": "address payable",
          "name": "employee",
          "type": "address"
        }
      ],
      "name": "RemoveEmployee",
      "type": "event"
    },
    {
      "anonymous": false,
      "inputs": [
        {
          "indexed": false,
          "internalType": "address payable",
          "name": "employee",
          "type": "address"
        }
      ],
      "name": "UpdateEmployee",
      "type": "event"
    },
    {
      "inputs": [
        {
          "internalType": "address",
          "name": "",
          "type": "address"
        }
      ],
      "name": "employees",
      "outputs": [
        {
          "internalType": "address payable",
          "name": "id",
          "type": "address"
        },
        {
          "internalType": "uint256",
          "name": "salary",
          "type": "uint256"
        },
        {
          "internalType": "uint256",
          "name": "lastPayDay",
          "type": "uint256"
        }
      ],
      "stateMutability": "view",
      "type": "function",
      "constant": true
    },
    {
      "inputs": [],
      "name": "owner",
      "outputs": [
        {
          "internalType": "address",
          "name": "",
          "type": "address"
        }
      ],
      "stateMutability": "view",
      "type": "function",
      "constant": true
    },
    {
      "inputs": [],
      "name": "renounceOwnership",
      "outputs": [],
      "stateMutability": "nonpayable",
      "type": "function"
    },
    {
      "inputs": [],
      "name": "test_balance",
      "outputs": [
        {
          "internalType": "uint256",
          "name": "",
          "type": "uint256"
        }
      ],
      "stateMutability": "view",
      "type": "function",
      "constant": true
    },
    {
      "inputs": [],
      "name": "totalEmployee",
      "outputs": [
        {
          "internalType": "uint256",
          "name": "",
          "type": "uint256"
        }
      ],
      "stateMutability": "view",
      "type": "function",
      "constant": true
    },
    {
      "inputs": [
        {
          "internalType": "address",
          "name": "newOwner",
          "type": "address"
        }
      ],
      "name": "transferOwnership",
      "outputs": [],
      "stateMutability": "nonpayable",
      "type": "function"
    },
    {
      "stateMutability": "payable",
      "type": "receive",
      "payable": true
    },
    {
      "inputs": [
        {
          "components": [
            {
              "internalType": "address payable",
              "name": "id",
              "type": "address"
            },
            {
              "internalType": "uint256",
              "name": "salary",
              "type": "uint256"
            },
            {
              "internalType": "uint256",
              "name": "lastPayDay",
              "type": "uint256"
            }
          ],
          "internalType": "struct Payroll.Employee",
          "name": "employee",
          "type": "tuple"
        }
      ],
      "name": "_partialPaid",
      "outputs": [],
      "stateMutability": "nonpayable",
      "type": "function"
    },
    {
      "inputs": [
        {
          "internalType": "uint256",
          "name": "index",
          "type": "uint256"
        }
      ],
      "name": "checkEmployee",
      "outputs": [
        {
          "internalType": "address payable",
          "name": "employeeId",
          "type": "address"
        },
        {
          "internalType": "uint256",
          "name": "salary",
          "type": "uint256"
        },
        {
          "internalType": "uint256",
          "name": "lastPayday",
          "type": "uint256"
        }
      ],
      "stateMutability": "view",
      "type": "function",
      "constant": true
    },
    {
      "inputs": [
        {
          "internalType": "address payable",
          "name": "employeeId",
          "type": "address"
        },
        {
          "internalType": "uint256",
          "name": "salary",
          "type": "uint256"
        }
      ],
      "name": "addEmployee",
      "outputs": [],
      "stateMutability": "nonpayable",
      "type": "function"
    },
    {
      "inputs": [
        {
          "internalType": "address payable",
          "name": "employeeId",
          "type": "address"
        }
      ],
      "name": "removeEmployee",
      "outputs": [],
      "stateMutability": "nonpayable",
      "type": "function"
    },
    {
      "inputs": [
        {
          "internalType": "address payable",
          "name": "employeeId",
          "type": "address"
        },
        {
          "internalType": "uint256",
          "name": "salary",
          "type": "uint256"
        }
      ],
      "name": "updateEmployee",
      "outputs": [],
      "stateMutability": "nonpayable",
      "type": "function"
    },
    {
      "inputs": [],
      "name": "addFund",
      "outputs": [
        {
          "internalType": "uint256",
          "name": "",
          "type": "uint256"
        }
      ],
      "stateMutability": "payable",
      "type": "function",
      "payable": true
    },
    {
      "inputs": [],
      "name": "calculateRunway",
      "outputs": [
        {
          "internalType": "uint256",
          "name": "",
          "type": "uint256"
        }
      ],
      "stateMutability": "view",
      "type": "function",
      "constant": true
    },
    {
      "inputs": [],
      "name": "hasEnoughFund",
      "outputs": [
        {
          "internalType": "bool",
          "name": "",
          "type": "bool"
        }
      ],
      "stateMutability": "view",
      "type": "function",
      "constant": true
    },
    {
      "inputs": [],
      "name": "getPaid",
      "outputs": [],
      "stateMutability": "nonpayable",
      "type": "function"
    },
    {
      "inputs": [],
      "name": "checkInfo",
      "outputs": [
        {
          "internalType": "uint256",
          "name": "balance",
          "type": "uint256"
        },
        {
          "internalType": "uint256",
          "name": "runway",
          "type": "uint256"
        },
        {
          "internalType": "uint256",
          "name": "employeeCount",
          "type": "uint256"
        }
      ],
      "stateMutability": "view",
      "type": "function",
      "constant": true
    },
    {
      "inputs": [],
      "name": "getBalance",
      "outputs": [
        {
          "internalType": "uint256",
          "name": "",
          "type": "uint256"
        }
      ],
      "stateMutability": "view",
      "type": "function",
      "constant": true
    },
    {
      "inputs": [],
      "name": "getNumberOfEmployee",
      "outputs": [
        {
          "internalType": "uint256",
          "name": "",
          "type": "uint256"
        }
      ],
      "stateMutability": "view",
      "type": "function",
      "constant": true
    }
  ],
  "bytecode": "0x6080604052600060035534801561001557600080fd5b5061003261002761003760201b60201c565b61003f60201b60201c565b610103565b600033905090565b60008060009054906101000a900473ffffffffffffffffffffffffffffffffffffffff169050816000806101000a81548173ffffffffffffffffffffffffffffffffffffffff021916908373ffffffffffffffffffffffffffffffffffffffff1602179055508173ffffffffffffffffffffffffffffffffffffffff168173ffffffffffffffffffffffffffffffffffffffff167f8be0079c531659141344cd1fd0a4f28419497f9722a3daafe3b4186f6b6457e060405160405180910390a35050565b61180e806101126000396000f3fe60806040526004361061010d5760003560e01c80638da5cb5b11610095578063cf41d6f811610064578063cf41d6f814610339578063d067894714610350578063d108177a1461038f578063e7fd9a13146103b8578063f2fde38b146103e157610114565b80638da5cb5b1461028857806396b02696146102b3578063a2f09dfa146102f2578063c6685e0e1461031057610114565b80634ec19512116100dc5780634ec19512146101c5578063577699b9146101f05780635e91d8ec1461021b578063715018a61461024457806385a962581461025b57610114565b806312065fe01461011957806313b07f341461014457806323fed09e1461016f57806339412e781461019a57610114565b3661011457005b600080fd5b34801561012557600080fd5b5061012e61040a565b60405161013b919061118e565b60405180910390f35b34801561015057600080fd5b50610159610412565b604051610166919061118e565b60405180910390f35b34801561017b57600080fd5b50610184610418565b60405161019191906111c4565b60405180910390f35b3480156101a657600080fd5b506101af610429565b6040516101bc919061118e565b60405180910390f35b3480156101d157600080fd5b506101da61042f565b6040516101e7919061118e565b60405180910390f35b3480156101fc57600080fd5b5061020561044b565b604051610212919061118e565b60405180910390f35b34801561022757600080fd5b50610242600480360381019061023d9190611278565b610455565b005b34801561025057600080fd5b50610259610648565b005b34801561026757600080fd5b5061027061065c565b60405161027f939291906112b8565b60405180910390f35b34801561029457600080fd5b5061029d610684565b6040516102aa9190611310565b60405180910390f35b3480156102bf57600080fd5b506102da60048036038101906102d5919061132b565b6106ad565b6040516102e993929190611367565b60405180910390f35b6102fa61074c565b604051610307919061118e565b60405180910390f35b34801561031c57600080fd5b5061033760048036038101906103329190611493565b61078b565b005b34801561034557600080fd5b5061034e61081e565b005b34801561035c57600080fd5b50610377600480360381019061037291906114ec565b610a03565b60405161038693929190611367565b60405180910390f35b34801561039b57600080fd5b506103b660048036038101906103b19190611519565b610a4d565b005b3480156103c457600080fd5b506103df60048036038101906103da9190611278565b610ca8565b005b3480156103ed57600080fd5b50610408600480360381019061040391906114ec565b610f50565b005b600047905090565b60015481565b60008061042361042f565b11905090565b60035481565b600061044660025447610fd390919063ffffffff16565b905090565b6000600354905090565b61045d610fe9565b816000600560008373ffffffffffffffffffffffffffffffffffffffff1673ffffffffffffffffffffffffffffffffffffffff1681526020019081526020016000209050600073ffffffffffffffffffffffffffffffffffffffff168160000160009054906101000a900473ffffffffffffffffffffffffffffffffffffffff1673ffffffffffffffffffffffffffffffffffffffff16036104fe57600080fd5b6000600560008673ffffffffffffffffffffffffffffffffffffffff1673ffffffffffffffffffffffffffffffffffffffff16815260200190815260200160002090506105bf816040518060600160405290816000820160009054906101000a900473ffffffffffffffffffffffffffffffffffffffff1673ffffffffffffffffffffffffffffffffffffffff1673ffffffffffffffffffffffffffffffffffffffff1681526020016001820154815260200160028201548152505061078b565b6105da670de0b6b3a76400008561106790919063ffffffff16565b8160010181905550428160020181905550610604816001015460025461107d90919063ffffffff16565b6002819055507f488bacda22fcd72c26e796890d62491cef03e8de61cad515b1826a683f2e760f856040516106399190611546565b60405180910390a15050505050565b610650610fe9565b61065a6000611093565b565b600080600047925060035490506000600254111561067f5761067c61042f565b91505b909192565b60008060009054906101000a900473ffffffffffffffffffffffffffffffffffffffff16905090565b6000806000600484815481106106c6576106c5611561565b5b9060005260206000200160009054906101000a900473ffffffffffffffffffffffffffffffffffffffff1692506000600560008573ffffffffffffffffffffffffffffffffffffffff1673ffffffffffffffffffffffffffffffffffffffff16815260200190815260200160002090508060010154925080600201549150509193909250565b60007fbe1e4b1ad5d83f75925e2f00ab046fbab2ee90d0dbdf7f2049d037a48ada09f34760405161077d919061118e565b60405180910390a147905090565b60006107cd600a6107bf6107ac85604001514261115790919063ffffffff16565b856020015161106790919063ffffffff16565b610fd390919063ffffffff16565b9050816000015173ffffffffffffffffffffffffffffffffffffffff166108fc829081150290604051600060405180830381858888f19350505050158015610819573d6000803e3d6000fd5b505050565b336000600560008373ffffffffffffffffffffffffffffffffffffffff1673ffffffffffffffffffffffffffffffffffffffff1681526020019081526020016000209050600073ffffffffffffffffffffffffffffffffffffffff168160000160009054906101000a900473ffffffffffffffffffffffffffffffffffffffff1673ffffffffffffffffffffffffffffffffffffffff16036108bf57600080fd5b6000600560003373ffffffffffffffffffffffffffffffffffffffff1673ffffffffffffffffffffffffffffffffffffffff1681526020019081526020016000209050600061091c600a836002015461107d90919063ffffffff16565b905042811061092a57600080fd5b8082600201819055508160000160009054906101000a900473ffffffffffffffffffffffffffffffffffffffff1673ffffffffffffffffffffffffffffffffffffffff166108fc83600101549081150290604051600060405180830381858888f193505050501580156109a1573d6000803e3d6000fd5b507f7decdec0fa70b21ecd45a15b04d5f5313c8fc915a1b3c034aa2bffa4fc8fc5918260000160009054906101000a900473ffffffffffffffffffffffffffffffffffffffff166040516109f59190611546565b60405180910390a150505050565b60056020528060005260406000206000915090508060000160009054906101000a900473ffffffffffffffffffffffffffffffffffffffff16908060010154908060020154905083565b610a55610fe9565b806000600560008373ffffffffffffffffffffffffffffffffffffffff1673ffffffffffffffffffffffffffffffffffffffff1681526020019081526020016000209050600073ffffffffffffffffffffffffffffffffffffffff168160000160009054906101000a900473ffffffffffffffffffffffffffffffffffffffff1673ffffffffffffffffffffffffffffffffffffffff1603610af657600080fd5b6000600560008573ffffffffffffffffffffffffffffffffffffffff1673ffffffffffffffffffffffffffffffffffffffff1681526020019081526020016000209050610bb7816040518060600160405290816000820160009054906101000a900473ffffffffffffffffffffffffffffffffffffffff1673ffffffffffffffffffffffffffffffffffffffff1673ffffffffffffffffffffffffffffffffffffffff1681526020016001820154815260200160028201548152505061078b565b610bd0816001015460025461115790919063ffffffff16565b600281905550600560008573ffffffffffffffffffffffffffffffffffffffff1673ffffffffffffffffffffffffffffffffffffffff168152602001908152602001600020600080820160006101000a81549073ffffffffffffffffffffffffffffffffffffffff0219169055600182016000905560028201600090555050610c65600160035461115790919063ffffffff16565b6003819055507f52d6abdca596d1c4a93f3df131dcf3a55ecaaa92ab3a0be58a15b98aab12d49b84604051610c9a9190611546565b60405180910390a150505050565b610cb0610fe9565b6000600560008473ffffffffffffffffffffffffffffffffffffffff1673ffffffffffffffffffffffffffffffffffffffff1681526020019081526020016000209050600073ffffffffffffffffffffffffffffffffffffffff168160000160009054906101000a900473ffffffffffffffffffffffffffffffffffffffff1673ffffffffffffffffffffffffffffffffffffffff1614610d5057600080fd5b60405180606001604052808473ffffffffffffffffffffffffffffffffffffffff168152602001610d92670de0b6b3a76400008561106790919063ffffffff16565b815260200142815250600560008573ffffffffffffffffffffffffffffffffffffffff1673ffffffffffffffffffffffffffffffffffffffff16815260200190815260200160002060008201518160000160006101000a81548173ffffffffffffffffffffffffffffffffffffffff021916908373ffffffffffffffffffffffffffffffffffffffff1602179055506020820151816001015560408201518160020155905050610e8f600560008573ffffffffffffffffffffffffffffffffffffffff1673ffffffffffffffffffffffffffffffffffffffff1681526020019081526020016000206001015460025461107d90919063ffffffff16565b600281905550610eab600160035461107d90919063ffffffff16565b6003819055506004839080600181540180825580915050600190039060005260206000200160009091909190916101000a81548173ffffffffffffffffffffffffffffffffffffffff021916908373ffffffffffffffffffffffffffffffffffffffff1602179055507f37e9308d0d750d43a2e5ef16b6d47b60b2741e12be41128ca3bec877db4f9dcb83604051610f439190611546565b60405180910390a1505050565b610f58610fe9565b600073ffffffffffffffffffffffffffffffffffffffff168173ffffffffffffffffffffffffffffffffffffffff1603610fc7576040517f08c379a0000000000000000000000000000000000000000000000000000000008152600401610fbe90611613565b60405180910390fd5b610fd081611093565b50565b60008183610fe19190611691565b905092915050565b610ff161116d565b73ffffffffffffffffffffffffffffffffffffffff1661100f610684565b73ffffffffffffffffffffffffffffffffffffffff1614611065576040517f08c379a000000000000000000000000000000000000000000000000000000000815260040161105c9061170e565b60405180910390fd5b565b60008183611075919061172e565b905092915050565b6000818361108b9190611770565b905092915050565b60008060009054906101000a900473ffffffffffffffffffffffffffffffffffffffff169050816000806101000a81548173ffffffffffffffffffffffffffffffffffffffff021916908373ffffffffffffffffffffffffffffffffffffffff1602179055508173ffffffffffffffffffffffffffffffffffffffff168173ffffffffffffffffffffffffffffffffffffffff167f8be0079c531659141344cd1fd0a4f28419497f9722a3daafe3b4186f6b6457e060405160405180910390a35050565b6000818361116591906117a4565b905092915050565b600033905090565b6000819050919050565b61118881611175565b82525050565b60006020820190506111a3600083018461117f565b92915050565b60008115159050919050565b6111be816111a9565b82525050565b60006020820190506111d960008301846111b5565b92915050565b6000604051905090565b600080fd5b600073ffffffffffffffffffffffffffffffffffffffff82169050919050565b6000611219826111ee565b9050919050565b6112298161120e565b811461123457600080fd5b50565b60008135905061124681611220565b92915050565b61125581611175565b811461126057600080fd5b50565b6000813590506112728161124c565b92915050565b6000806040838503121561128f5761128e6111e9565b5b600061129d85828601611237565b92505060206112ae85828601611263565b9150509250929050565b60006060820190506112cd600083018661117f565b6112da602083018561117f565b6112e7604083018461117f565b949350505050565b60006112fa826111ee565b9050919050565b61130a816112ef565b82525050565b60006020820190506113256000830184611301565b92915050565b600060208284031215611341576113406111e9565b5b600061134f84828501611263565b91505092915050565b6113618161120e565b82525050565b600060608201905061137c6000830186611358565b611389602083018561117f565b611396604083018461117f565b949350505050565b600080fd5b6000601f19601f8301169050919050565b7f4e487b7100000000000000000000000000000000000000000000000000000000600052604160045260246000fd5b6113ec826113a3565b810181811067ffffffffffffffff8211171561140b5761140a6113b4565b5b80604052505050565b600061141e6111df565b905061142a82826113e3565b919050565b6000606082840312156114455761144461139e565b5b61144f6060611414565b9050600061145f84828501611237565b600083015250602061147384828501611263565b602083015250604061148784828501611263565b60408301525092915050565b6000606082840312156114a9576114a86111e9565b5b60006114b78482850161142f565b91505092915050565b6114c9816112ef565b81146114d457600080fd5b50565b6000813590506114e6816114c0565b92915050565b600060208284031215611502576115016111e9565b5b6000611510848285016114d7565b91505092915050565b60006020828403121561152f5761152e6111e9565b5b600061153d84828501611237565b91505092915050565b600060208201905061155b6000830184611358565b92915050565b7f4e487b7100000000000000000000000000000000000000000000000000000000600052603260045260246000fd5b600082825260208201905092915050565b7f4f776e61626c653a206e6577206f776e657220697320746865207a65726f206160008201527f6464726573730000000000000000000000000000000000000000000000000000602082015250565b60006115fd602683611590565b9150611608826115a1565b604082019050919050565b6000602082019050818103600083015261162c816115f0565b9050919050565b7f4e487b7100000000000000000000000000000000000000000000000000000000600052601260045260246000fd5b7f4e487b7100000000000000000000000000000000000000000000000000000000600052601160045260246000fd5b600061169c82611175565b91506116a783611175565b9250826116b7576116b6611633565b5b828204905092915050565b7f4f776e61626c653a2063616c6c6572206973206e6f7420746865206f776e6572600082015250565b60006116f8602083611590565b9150611703826116c2565b602082019050919050565b60006020820190508181036000830152611727816116eb565b9050919050565b600061173982611175565b915061174483611175565b925082820261175281611175565b9150828204841483151761176957611768611662565b5b5092915050565b600061177b82611175565b915061178683611175565b925082820190508082111561179e5761179d611662565b5b92915050565b60006117af82611175565b91506117ba83611175565b92508282039050818111156117d2576117d1611662565b5b9291505056fea2646970667358221220663424ad0bd9034aa6189fae2f99936b419050920d258d71a3025432a5afd40464736f6c63430008110033",
  "immutableReferences": {},
  "source": "// SPDX-License-Identifier: GPL-3.0\r\n\r\npragma solidity >=0.7.0 <0.9.0;\r\n// import \"https://github.com/OpenZeppelin/openzeppelin-contracts/blob/master/contracts/access/Ownable.sol\";\r\n// import \"https://github.com/OpenZeppelin/openzeppelin-contracts/blob/master/contracts/utils/math/SafeMath.sol\";\r\nimport \"@openzeppelin/contracts/access/Ownable.sol\";\r\nimport \"@openzeppelin/contracts/utils/math/SafeMath.sol\";\r\n\r\ncontract Payroll is Ownable{\r\n    // attaching SafeMath library to uint\r\n    // https://ethereum.stackexchange.com/questions/25829/meaning-of-using-safemath-for-uint256\r\n    using SafeMath for uint;\r\n    uint public test_balance;\r\n    // constructor() public {\r\n    //     test_balance = address(this).balance;\r\n    // }\r\n    // defining the struct for employee data\r\n    struct Employee {\r\n        address payable id;\r\n        uint salary;\r\n        uint lastPayDay;\r\n    }\r\n\r\n    uint constant payDuration = 10 seconds;\r\n\r\n    uint totalSalary;\r\n    uint public totalEmployee = 0;\r\n    address payable[] employeeList;\r\n    mapping(address => Employee) public employees;\r\n\r\n    event NewEmployee(\r\n        address payable employee\r\n    );\r\n    event UpdateEmployee(\r\n        address payable employee\r\n    );\r\n    event RemoveEmployee(\r\n        address payable employee\r\n    );\r\n    event NewFund(\r\n        uint balance\r\n    );\r\n    event GetPaid(\r\n        address payable employee\r\n    );\r\n\r\n    modifier employeeExit(address payable employeeId) {\r\n        Employee storage employee = employees[employeeId];\r\n        require(employee.id != payable(address(0x0)));\r\n        _;\r\n    }\r\n\r\n    function _partialPaid(Employee memory employee) public {\r\n        uint payment = employee.salary.mul(block.timestamp.sub(employee.lastPayDay)).div(payDuration);\r\n        employee.id.transfer(payment);\r\n    }\r\n\r\n    function checkEmployee(uint index) public view returns (address payable employeeId, uint salary, uint lastPayday) {\r\n        employeeId = employeeList[index];\r\n        Employee storage employee = employees[employeeId];\r\n        salary = employee.salary;\r\n        lastPayday = employee.lastPayDay;\r\n    }\r\n\r\n\r\n    function addEmployee(address payable employeeId, uint salary) public onlyOwner {\r\n        Employee storage employee = employees[employeeId];\r\n        require(employee.id == payable(address(0x0)));\r\n\r\n        employees[employeeId] = Employee(employeeId, salary.mul(1 ether), block.timestamp);\r\n        totalSalary = totalSalary.add(employees[employeeId].salary);\r\n        totalEmployee = totalEmployee.add(1);\r\n        employeeList.push(employeeId);\r\n        emit NewEmployee(employeeId);\r\n    }\r\n\r\n    function removeEmployee(address payable employeeId) public onlyOwner employeeExit(employeeId) {\r\n        Employee storage employee = employees[employeeId];\r\n        _partialPaid(employee);\r\n        totalSalary = totalSalary.sub(employee.salary);\r\n        delete employees[employeeId];\r\n        totalEmployee = totalEmployee.sub(1);\r\n        emit RemoveEmployee(employeeId);\r\n    }\r\n\r\n    function updateEmployee(address payable employeeId, uint salary) public onlyOwner employeeExit(employeeId){\r\n        Employee storage employee = employees[employeeId];\r\n        _partialPaid(employee);\r\n        employee.salary = salary.mul(1 ether);\r\n        employee.lastPayDay = block.timestamp;\r\n        totalSalary = totalSalary.add(employee.salary);\r\n        emit UpdateEmployee(employeeId);\r\n    }\r\n\r\n    function addFund() external payable returns (uint) {\r\n        emit NewFund(address(this).balance);\r\n        return address(this).balance; \r\n    }\r\n\r\n    function calculateRunway() public view returns (uint) {\r\n        return address(this).balance.div(totalSalary);\r\n    }\r\n\r\n    function hasEnoughFund() public view returns (bool) {\r\n        return calculateRunway() > 0;\r\n    }\r\n\r\n    function getPaid() public employeeExit(payable(msg.sender)) {\r\n        Employee storage employee = employees[payable(msg.sender)];\r\n\r\n        uint nextPayDay = employee.lastPayDay.add(payDuration);\r\n        require(nextPayDay < block.timestamp);\r\n\r\n        employee.lastPayDay = nextPayDay;\r\n        employee.id.transfer(employee.salary);\r\n        emit GetPaid(employee.id);\r\n    }\r\n\r\n    function checkInfo() public view returns (uint balance, uint runway, uint employeeCount){\r\n        balance = address(this).balance;\r\n        employeeCount = totalEmployee;\r\n        if (totalSalary > 0){\r\n            runway = calculateRunway();\r\n        }\r\n    }\r\n\r\n    function getBalance() public view returns (uint){\r\n        return address(this).balance;\r\n    }\r\n\r\n    function getNumberOfEmployee() public view returns (uint){\r\n        return totalEmployee;\r\n    }\r\n\r\n    receive() external payable {}\r\n\r\n}",
  "sourcePath": "C:\\Users\\yashd\\OneDrive\\Desktop\\Yash\\SJSU\\22-23\\Fall\\CMPE-272\\Project\\ModernPayroll\\backend\\contracts\\Payroll.sol",
  "compiler": {
    "name": "solc",
    "version": "0.8.17+commit.8df45f5f.Emscripten.clang"
  },
  "schemaVersion": "3.4.10",
  "updatedAt": "2022-11-27T16:42:25.710Z",
  "networkType": "ethereum",
  "devdoc": {
    "kind": "dev",
    "methods": {
      "owner()": {
        "details": "Returns the address of the current owner."
      },
      "renounceOwnership()": {
        "details": "Leaves the contract without owner. It will not be possible to call `onlyOwner` functions anymore. Can only be called by the current owner. NOTE: Renouncing ownership will leave the contract without an owner, thereby removing any functionality that is only available to the owner."
      },
      "transferOwnership(address)": {
        "details": "Transfers ownership of the contract to a new account (`newOwner`). Can only be called by the current owner."
      }
    },
    "version": 1
  },
  "userdoc": {
    "kind": "user",
    "methods": {},
    "version": 1
  }
}